:020000040000FA
:060000000A128A11EE2F26
:100C6A0083160313081488140800700C83120313E4
:100C7A00031C8813031888170800700C83120313C7
:100C8A00031C0813031808170800700C83120313B7
:100C9A00031C881203188816080083160317890193
:100CAA008316031386018312031386010800831631
:100CBA000313881388120813831203130812881265
:100CCA00081308008312031308080139F200F3011C
:100CDA007208F0007308F100722E080083120313E1
:100CEA00080C0139F200F3017208F0007308F100F0
:100CFA007E2E08003F3406345B344F3466346D343C
:100D0A007D3407347F346F340034003400340034C7
:100D1A00003400347E088A007F0882000A128A1191
:100D2A008F260A128A118000840A04087D06031994
:100D3A000034FF0A0319FE0A932EB12EC730F200BF
:100D4A00A62EF20BA52EA92EAA2E0130F0020030F3
:100D5A00031CF103F102B12E70087104031DB62EB3
:100D6A00B72EA32EB82E0800F11BBC2EBD2ED32EF3
:100D7A007108803AFF0080307F02031DC62E1030B2
:100D8A0070020318C92ECA2ED32E7008203E840082
:100D9A0083130008831203138600D72E83120313CA
:100DAA008601D72E0800F601F701FA01C12FC12FDB
:100DBA00FA01FA0AC12F0A128A1152260A128A1154
:100DCA000A128A115C260A128A110A128A11352617
:100DDA000A128A110230F4007408FA00C12F0A12AA
:100DEA008A1173260A128A1170037104031DFE2EDA
:100DFA00FF2EC12F0330F4007408FA00C12FC12F4F
:100E0A000130F0000030F1000A128A113A260A1263
:100E1A008A110130F0000030F1000A128A114226CC
:100E2A000A128A110030F000F1000A128A114A26C9
:100E3A000A128A110430F4007408FA00C12FB8307B
:100E4A00F8000B30F9000530F4007408FA00C12FDD
:100E5A000A128A1167260A128A1170037104031D85
:100E6A00372F382F3D2F0930F4007408FA003D2F30
:100E7A000130F0000030F1000A128A11A2260A128B
:100E8A008A11FF30F8070318F90AFF30F9077908C1
:100E9A00803AFF0080307F02031D552F013078020F
:100EAA000318582F592FC12F0630F4007408FA007E
:100EBA00C12FC12F0130F0000030F1000A128A114F
:100ECA003A260A128A110030F000F1000A128A1139
:100EDA0042260A128A110130F0000030F1000A128B
:100EEA008A114A260A128A110730F4007408FA0095
:100EFA00C12F7708F1007608F0000A128A11B92684
:100F0A000A128A110130F6070318F70A0030F707A8
:100F1A000830F4007408FA00C12F0A128A116726F1
:100F2A000A128A1170037104031D9C2F9D2FC12F71
:100F3A000930F4007408FA00C12FC12F0030F00004
:100F4A00F1000A128A113A260A128A110030F000B8
:100F5A00F1000A128A1142260A128A110030F000A0
:100F6A00F1000A128A114A260A128A110230F40082
:100F7A007408FA00C12FC12F7A08F400F501750828
:100F8A00003A0319C92FC12F7408003A0319DD2E3C
:100F9A00013A0319E02E033A0319F42E013A031910
:100FAA00052F073A0319242F013A03192D2F033A63
:100FBA0003195F2F013A03197E2F0F3A0319922F53
:100FCA00013A0319A32FC12FC12FC12F0A128A1167
:100FDA00002883133030FD000630FE007F30FF000A
:100FEA00203084000A128A1193260A128A11830178
:060FFA000A128A11D82E34
:04400E00D4E0FFFFFC
:00000001FF
